:020000040800F2
:1000000000500020C5240008F9230008FD23000843
:10001000012400080524000809240008000000004D
:100020000000000000000000000000000D24000897
:1000300011240008000000001524000819240008FD
:100040000D250008252400080D2500080D250008B1
:100050002D240008352400080D2500080D25000872
:100060000D2500080D2500080D2500080D250008A8
:100070000D2500080D2500080D2500080D25000898
:100080000D2500080D2500080D2500080D25000888
:100090000D2500080D2500080D2500080D25000878
:1000A000392400084924000859240008692400085C
:1000B0000D2500080D2500080D2500080D25000858
:1000C0000D2500080D2500080D2500080D25000848
:1000D0000D2500080D2500080D2500080D25000838
:1000E0000D2500080D2500080D2500080000000062
:1000F0000000000000000000000000000000000000
:0C01000000000000000000005FF808F1A3
:10010C0010B5054C237833B9044B13B10448AFF345
:10011C0000800123237010BD900C00200000000013
:10012C00E42D0008084B10B51BB108490848AFF383
:10013C0000800848036803B910BD074B002BFBD0A7
:10014C00BDE81040184700BF00000000940C0020D0
:10015C00E42D0008900C00200000000010B50446AF
:10016C000E4B18784FF47A73B3FBF0F30C4A10680B
:10017C00B0FBF3F000F08AF858B90F2C0BD8002222
:10018C0021464FF0FF3000F043F8044B5C60002038
:10019C0010BD012010BD012010BD00BF00000020CB
:1001AC00280C002008B5074A136843F010031360AD
:1001BC00032000F01BF80020FFF7D0FF02F03EF800
:1001CC00002008BD00200240034A13680349097847
:1001DC000B441360704700BFDC0C002000000020B3
:1001EC00014B1868704700BFDC0C0020074AD3682D
:1001FC0023F4E0631B041B0C000200F4E0601843C2
:10020C0040F0BF6040F40030D060704700ED00E07B
:10021C0030B4164BDB68C3F30223C3F10704042C80
:10022C0028BF04241D1D062D01D9DD1E00E000256C
:10023C00012303FA04F4013C2140A940AB40013BEB
:10024C001A400A43002806DA00F00F001201D2B25D
:10025C00074B1A5407E01201D2B200F1604000F5CE
:10026C00614080F8002330BC704700BF00ED00E017
:10027C0014ED00E0420900F01F00012303FA00F026
:10028C00014B43F82200704700E100E00138B0F167
:10029C00807F0AD2064B5860F021064A82F8231060
:1002AC000020986007221A6070470120704700BF39
:1002BC0010E000E000ED00E00022044BDA61044A9B
:1002CC00136943F00103136101807047E00C0020B7
:1002DC00002002401A4BDB6813F0100F06D0194AAD
:1002EC00D36943F00203D361102300E00023144AC6
:1002FC00D26812F0040F06D01249CA6942F001020A
:10030C00CA6143F004030E4AD26912F0010F09D0FE
:10031C000C49CA6942F00402CA610949CA6922F04F
:10032C000102CA6140F20112934205D1044AD36919
:10033C0023F00103D3617047014AD360704700BFBB
:10034C0000200240E00C0020704700BF704700BF47
:10035C00F8B5544BDB6813F0100F04D1514BDB682C
:10036C0013F0040F0BD0504CA5684FF0FF33A36073
:10037C00FFF7B0FF2846FFF7E9FF00232370494B36
:10038C00DB6813F0200F7AD02022464BDA60464B04
:10039C001B7813F0FF0F72D0434B1B78DBB2012B91
:1003AC001ED1414B5A68013A5A605B687BB13E4C96
:1003BC00A068FFF7C9FFA06800F58060A060394A0B
:1003CC00136923F00203136100F070F857E0364B09
:1003DC004FF0FF30986000221A70FFF7B5FF4EE027
:1003EC00314B1B78DBB2022B0BD12E4A136923F055
:1003FC00040313610020FFF7A7FF00222A4B1A7099
:10040C003DE0294B5A68013A5A605B68BBB1264BF8
:10041C009A6802329A609868D3E90467340C44EA0B
:10042C0007443D0CC3E904451E490A6922F0010248
:10043C000A61D3E9042391B2FFF73EFF1FE01A4B88
:10044C001B78DBB2032B04D1174B9868FFF77CFFAA
:10045C000FE0154B1B78DBB2042B05D1124B9868BF
:10046C000238FFF771FF04E00F4B98680638FFF76E
:10047C006BFF0D4B4FF0FF329A6000221A700A4B43
:10048C001B7813F0FF0F0BD1064B1A6922F00702F1
:10049C001A611A6922F4A0521A610022024B1A76D0
:1004AC00F8BD00BF00200240E00C00200022064BEB
:1004BC00DA61064B1A6942F002021A6158611A6934
:1004CC0042F040021A617047E00C0020002002400C
:1004DC00F0B583B000263446D5E00122A2400B686B
:1004EC0013409A4240F0CE804D68122D2DD00BD87F
:1004FC00022D27D003D85DB3012D1ED035E0032D7E
:10050C0030D0112D1BD030E0614FBD4220D008D827
:10051C00A7F58017BD421BD007F58037BD4224D10B
:10052C0016E05C4FBD4213D007F58037BD420FD0AB
:10053C00A7F58017BD4218D10AE0CE6815E0CE6849
:10054C00043612E0CE6808360FE0CE680C360CE0AC
:10055C008D684DB1012D02D10261082605E0426182
:10056C00082602E0002600E00426FF2B01D8864670
:10057C0001E000F1040EFF2B01D8A20002E0A4F16F
:10058C0008029200DEF800700F25954027EA050559
:10059C0006FA02F22A43CEF800204A6812F0805F75
:1005AC0070D03D4A956945F001059561926902F05C
:1005BC0001020192019AA708BD1C384A52F8255035
:1005CC0004F0030292004FF00F0E0EFA02FE25EA21
:1005DC000E0E334DA8420DD005F58065A8420BD008
:1005EC0005F58065A84209D005F58065A84207D1BC
:1005FC00032506E0002504E0012502E0022500E0C9
:10060C00042505FA02F24EEA02020237234D45F8A0
:10061C0027204A6812F4803F05D005F580652A68CA
:10062C001A432A6004E01F4D2A6822EA03022A605A
:10063C004A6812F4003F04D01A4D6A681A436A6083
:10064C0004E0184D6A6822EA03026A604A6812F4F0
:10065C00801F04D0134DAA681A43AA6004E0114D00
:10066C00AA6822EA0302AA604A6812F4001F04D0A6
:10067C000C4DEA681343EB6004E00A4DEA6822EA89
:10068C000303EB6001340F2C7FF627AF03B0F0BDF2
:10069C000000211000003110001002400000014049
:1006AC0000080140000401408368194201D0012078
:1006BC0070470020704700BF0AB101617047090400
:1006CC0001617047C3685940C1607047704700BFF3
:1006DC0008B5064B5B6913F4803F05D0FFF7F6FFB6
:1006EC004FF48032014B5A6108BD00BF0004014039
:1006FC0082B0084B1B68084AA2FB03235B0A00FB71
:10070C0003F0019000BF019B5A1E0192002BF9D1FE
:10071C0002B07047280C0020D34D621070B582B027
:10072C000446036813F0010F6BD0A84B5B6803F011
:10073C000C03042B0AD0A54B5B6803F00C03082BAD
:10074C000DD1A24B5B6813F4803F08D09F4B1B6804
:10075C0013F4003F55D06368002B52D1B8E16368A5
:10076C00B3F5803F05D1994A136843F48033136085
:10077C0026E063B903F1804303F504331A6822F4CD
:10078C0080321A601A6822F480221A6018E0B3F5DD
:10079C00A02F0CD103F18043A3F53C331A6842F42B
:1007AC0080221A601A6842F480321A6008E0874B83
:1007BC001A6822F480321A601A6822F480221A60B5
:1007CC0063687BB1FFF70CFD054605E0FFF708FDFC
:1007DC00401B642800F27E817C4B1B6813F4003FA5
:1007EC00F4D00EE0FFF7FCFC054605E0FFF7F8FC43
:1007FC00401B642800F27081744B1B6813F4003F9B
:10080C00F4D1236813F0020F50D0704B5B6813F0D7
:10081C000C0F0AD06D4B5B6803F00C03082B16D140
:10082C006A4B5B6813F4803F11D1684B1B6813F063
:10083C00020F03D02369012B40F05081634A1368E7
:10084C0023F0F803616943EAC10313602EE02369C6
:10085C00D3B101225E4B1A60FFF7C2FC054605E0DE
:10086C00FFF7BEFC401B022800F23A81574B1B6875
:10087C0013F0020FF4D0554A136823F0F8036169A2
:10088C0043EAC103136011E00022514B1A60FFF7D9
:10089C00A7FC054605E0FFF7A3FC401B022800F26D
:1008AC0021814A4B1B6813F0020FF4D1236813F01B
:1008BC00080F29D0A369ABB10122464B1A60FFF790
:1008CC008FFC054605E0FFF78BFC401B022800F26D
:1008DC000B813E4B5B6A13F0020FF4D00120FFF743
:1008EC0007FF11E000223B4B1A60FFF779FC05462D
:1008FC0005E0FFF775FC401B022800F2F780334B34
:10090C005B6A13F0020FF4D1236813F0040F00F0AC
:10091C0089802E4BDB6913F0805F0BD12B4BDA698E
:10092C0042F08052DA61DB6903F080530193019B42
:10093C00012500E00025284B1B6813F4807F13D1A0
:10094C00254A136843F480731360FFF749FC06468D
:10095C0005E0FFF745FC801B642800F2C9801E4BA4
:10096C001B6813F4807FF4D0E368012B05D1174A80
:10097C00136A43F00103136222E063B903F180436D
:10098C0003F504331A6A22F001021A621A6A22F081
:10099C0004021A6214E0052B09D10C4B1A6A42F0BE
:1009AC0004021A621A6A42F001021A6208E0074B4A
:1009BC001A6A22F001021A621A6A22F004021A62FE
:1009CC00E368CBB1FFF70CFC06460FE000100240C9
:1009DC00000042428004424200700040FFF700FCDD
:1009EC00801B41F28833984200F28480494B1B6A89
:1009FC0013F0020FF2D00FE0FFF7F2FB064606E011
:100A0C00FFF7EEFB801B41F28833984274D8414BC0
:100A1C001B6A13F0020FF3D125B13E4AD36923F0C0
:100A2C008053D361E369002B68D03A4A526802F0D4
:100A3C000C02082A64D0022B37D10022364B1A60E4
:100A4C00FFF7CEFB054604E0FFF7CAFB401B02286C
:100A5C0058D8304B1B6813F0007FF5D1236AB3F5DF
:100A6C00803F06D12B494B6823F40032A368134313
:100A7C004B602848436823F47411236A626A134359
:100A8C000B4343600122244B1A60FFF7A9FB044679
:100A9C0004E0FFF7A5FB001B022835D81D4B1B6893
:100AAC0013F0007FF5D0002031E000221A4B1A60C1
:100ABC00FFF796FB044604E0FFF792FB001B0228AD
:100ACC0024D8144B1B6813F0007FF5D100201EE0D6
:100ADC0001201CE003201AE0032018E0012016E09E
:100AEC00032014E0032012E0032010E003200EE0AA
:100AFC0003200CE003200AE0032008E0002006E0BD
:100B0C00012004E0032002E0032000E0032002B0F7
:100B1C0070BD00BF001002406000424230B486B08D
:100B2C00164D02AC28686968AA68EB680FC42B8A5A
:100B3C00ADF80430124B5B6803F00C02082A19D193
:100B4C00C3F3834206A90A4412F8100C13F4803F35
:100B5C000CD00B4B5B68C3F340430B4413F8142CC1
:100B6C00084B03FB00F0B0FBF2F004E0064B03FB78
:100B7C0000F000E0034806B030BC7047FC2D0008C4
:100B8C000010024000127A0000093D0070B5654B60
:100B9C001B6803F007038B420BD2624A136823F0E5
:100BAC0007030B431360136803F00703994240F0EB
:100BBC00A880036813F0020F17D013F0040F04D0B1
:100BCC00594A536843F4E0635360036813F0080F09
:100BDC0004D0554A536843F460535360524C6368D5
:100BEC0023F0F0028368134363600D4604460368E8
:100BFC0013F0010F4DD04268012A05D14A4B1B68F6
:100C0C0013F4003F0DD17EE0022A05D1464B1B6840
:100C1C0013F0007F05D178E0434B1B6813F0020FF3
:100C2C0075D041494B6823F0030313434B60FFF726
:100C3C00D7FA06466368012B0ED106E0FFF7D0FA0F
:100C4C00801B41F28833984263D8374B5B6803F0C2
:100C5C000C03042BF2D11CE0022B15D106E0FFF79C
:100C6C00BFFA801B41F28833984254D82E4B5B68F4
:100C7C0003F00C03082BF2D10BE0FFF7B1FA801B49
:100C8C0041F28833984248D8274B5B6813F00C0F1D
:100C9C00F3D1244B1B6803F007039D420AD2214A6F
:100CAC00136823F007032B431360136803F0070347
:100CBC009D4234D1236813F0040F06D01A494B68B7
:100CCC0023F4E062E36813434B60236813F0080FCE
:100CDC0007D0154A536823F46053216943EAC103D2
:100CEC005360FFF71BFF104B5B68C3F303130F4AF2
:100CFC00D35CD8400E4B18600020FFF72FFA002071
:100D0C0070BD012070BD012070BD012070BD01209F
:100D1C0070BD032070BD032070BD032070BD012089
:100D2C0070BD00BF0020024000100240102E0008D1
:100D3C00280C0020014B1868704700BF280C0020BD
:100D4C0008B5FFF7F7FF044B5B68C3F30223034AB4
:100D5C00D35CD84008BD00BF00100240202E000814
:100D6C0008B5FFF7E7FF044B5B68C3F3C223034AE4
:100D7C00D35CD84008BD00BF00100240202E0008F4
:100D8C0070B4036A23F001030362036A4668826944
:100D9C0022F073020C6842EA040523F002028B680D
:100DAC0013430C4CA04205D123F00803CA6813432B
:100DBC0023F00403074CA04205D126F440764A697F
:100DCC0032438E691643466085614A68426303620A
:100DDC0070BC7047002C014030B4036A23F480735C
:100DEC000362036A4568C26922F073020C682243ED
:100DFC0023F400738C6843EA04230E4CA04206D102
:100E0C0023F40063CC6843EA042323F48063094C85
:100E1C00A04207D125F440554C6945EA04158C696C
:100E2C0045EA04154560C2614A68C263036230BC7E
:100E3C00704700BF002C014030B4036A23F4805388
:100E4C000362036A4468C26922F4E6420D6842EA0E
:100E5C00052223F400538D6843EA0533074DA8425D
:100E6C0004D124F480444D6944EA85144460C26181
:100E7C004A680264036230BC704700BF002C01401A
:100E8C0010B4036A046A24F001040462846924F037
:100E9C00F00444EA021223F00A031943826101624E
:100EAC0010BC704710B4036A23F01003036284690A
:100EBC00036A24F4704444EA023223F0A00343EAA8
:100ECC0001118261016210BC704700BF836823F07E
:100EDC00700341F007010B438360704710B48468C2
:100EEC0024F47F4442EA0323194344EA0103836058
:100EFC0010BC7047022380F83D300268136843F041
:100F0C0001031360012380F83D300020704700BFBF
:100F1C00704700BF90F83C30012B00F0838010B577
:100F2C000446012380F83C30022380F83D300268EF
:100F3C00936823F47F4323F0770393600B68402B73
:100F4C004CD00AD8102B58D002D8002B50D062E0CD
:100F5C00202B57D0302B5AD05DE0702B12D004D8F8
:100F6C00502B27D0602B2FD055E0B3F5805F03D0EA
:100F7C00B3F5005F12D04EE00268936823F00703CC
:100F8C00936048E0CB684A6889680068FFF7A6FF61
:100F9C002268936843F0770393603CE0CB684A681F
:100FAC0089680068FFF79AFF2268936843F48043CE
:100FBC00936030E0CA6849680068FFF761FF502110
:100FCC002068FFF783FF26E0CA6849680068FFF7CE
:100FDC0069FF60212068FFF779FF1CE0CA68496847
:100FEC000068FFF74DFF40212068FFF76FFF12E00C
:100FFC0000210068FFF76AFF0DE010210068FFF781
:10100C0065FF08E020210068FFF760FF03E0302156
:10101C000068FFF75BFF012384F83D30002084F863
:10102C003C0010BD02207047704700BF704700BFE6
:10103C00704700BF704700BF10B5044603681A69BB
:10104C0012F0020F17D0DA6812F0020F13D06FF003
:10105C0002021A610123037703689B6913F0030FE3
:10106C0002D0FFF7E5FF04E0FFF7E0FF204600F0B9
:10107C00FDFF0023237723681A6912F0040F19D09F
:10108C00DA6812F0040F15D06FF004021A61022313
:10109C00237723689B6913F4407F03D02046FFF726
:1010AC00C7FF05E02046FFF7C1FF204600F0DEFF3A
:1010BC000023237723681A6912F0080F19D0DA6815
:1010CC0012F0080F15D06FF008021A610423237771
:1010DC002368DB6913F0030F03D02046FFF7A8FF4A
:1010EC0005E02046FFF7A2FF204600F0BFFF0023DB
:1010FC00237723681A6912F0100F19D0DA6812F0EE
:10110C00100F15D06FF010021A6108232377236893
:10111C00DB6913F4407F03D02046FFF789FF05E01D
:10112C002046FFF783FF204600F0A0FF0023237723
:10113C0023681A6912F0010F09D0DA6812F0010F56
:10114C0005D06FF001021A612046FFF76DFF23688E
:10115C001A6912F0800F09D0DA6812F0800F05D0EE
:10116C006FF080021A61204600F0CEF923681A69EC
:10117C0012F0400F09D0DA6812F0400F05D06FF072
:10118C0040021A612046FFF755FF23681A6912F0D6
:10119C00200F09D0DA6812F0200F05D06FF0200272
:1011AC001A61204600F0AEF910BD00BF03681A4A60
:1011BC0090420AD0B0F1804F07D0A2F59432904201
:1011CC0003D002F58062904203D123F070034A6889
:1011DC001343114A90420AD0B0F1804F07D0A2F5C8
:1011EC009432904203D002F58062904203D123F4F2
:1011FC004073CA68134323F080034A6913430360A6
:10120C008B68C3620B688362034B984201D10B69F4
:10121C000363012343617047002C0140B8B110B542
:10122C00044690F83D3013F0FF0F04D1002380F8F2
:10123C003C3001F03FF8022384F83D30211D20683A
:10124C00FFF7B4FF012384F83D30002010BD0120CE
:10125C00704700BFB8B110B5044690F83D3013F09C
:10126C00FF0F04D1002380F83C30FFF751FE02231E
:10127C0084F83D30211D2068FFF798FF012384F886
:10128C003D30002010BD0120704700BF30B4036A10
:10129C0023F010030362036A4468826922F4E64275
:1012AC000D6842EA052223F020038D6843EA0513FA
:1012BC000D4DA84206D123F08003CD6843EA0513F7
:1012CC0023F04003084DA84207D124F440644D6933
:1012DC0044EA85048D6944EA8504446082614A6865
:1012EC008263036230BC7047002C014038B590F823
:1012FC003C30012B66D00D460446012380F83C306F
:10130C00022380F83D300C2A55D8DFE802F0075450
:10131C0054541A5454542E54545441000068FFF73A
:10132C002FFD2268936943F0080393612268936947
:10133C0023F004039361226891692B690B43936139
:10134C0039E00068FFF7A2FF2268936943F4006359
:10135C0093612268936923F4806393612268936993
:10136C00296943EA0123936125E00068FFF734FD06
:10137C002268D36943F00803D3612268D36923F050
:10138C000403D3612268D1692B690B43D36112E04A
:10139C000068FFF751FD2268D36943F40063D36101
:1013AC002268D36923F48063D3612268D3692969E5
:1013BC0043EA0123D361012384F83D30002084F8F3
:1013CC003C0038BD022038BD10B4012303FA01F4EF
:1013DC00036A23EA04030362036A8A401A43026223
:1013EC0010BC704710B504460C291FD8DFE801F07B
:1013FC00071E1E1E0D1E1E1E131E1E1E1900026829
:10140C00D36843F00203D36010E00268D36843F062
:10141C000403D3600AE00268D36843F00803D36086
:10142C0004E00268D36843F01003D3600122206803
:10143C00FFF7CAFF2368074A934203D15A6C42F460
:10144C0000425A642268136843F0010313600020C1
:10145C0010BD00BF002C014090F83C30012B25D072
:10146C00012380F83C30CB6823F440728B68134323
:10147C0023F480624B68134323F400620B6813431C
:10148C0023F480520B69134323F400524B6913432A
:10149C0023F480438A69134323F400431343026803
:1014AC005364002380F83C30184670470220704784
:1014BC0090F83C30012B21D030B4012280F83C2034
:1014CC00022380F83D300468636823F07003636086
:1014DC00046865680B682B4363600468A36823F099
:1014EC008003A3600468A5684B682B43A36080F855
:1014FC003D20002380F83C30184601E00220704764
:10150C0030BC7047704700BF704700BF2DE9F843EF
:10151C00814601680B6923F44052C36813430B6185
:10152C00816803691943436919430068C26822F44E
:10153C00B05323F00C030B43C360D9F800104B6974
:10154C0023F44072D9F8183013434B61D9F800508A
:10155C005B4B9D4259D1FFF703FC00EB800000EB85
:10156C008000D9F80440A400B0FBF4F4554EA6FB5F
:10157C00043464092401FFF7F3FB00EB800000EB5B
:10158C008000D9F804309B00B0FBF3F7FFF7E8FBC1
:10159C0000EB800000EB8000D9F804309B00B0FB1E
:1015AC00F3F3A6FB03235B094FF0640808FB1373EA
:1015BC001B013233A6FB03235B0903F0F0031C442D
:1015CC00FFF7CEFB00EB800000EB8000D9F8043075
:1015DC009B00B0FBF3F7FFF7C3FB00EB800000EBC5
:1015EC008000D9F804309B00B0FBF3F3A6FB032377
:1015FC005B0908FB13731B013233A6FB0323C3F3F4
:10160C0043131C44AC60BDE8F883FFF799FB00EB77
:10161C00800000EB8000D9F80440A400B0FBF4F487
:10162C00284EA6FB043464092401FFF789FB00EB68
:10163C00800000EB8000D9F804309B00B0FBF3F77E
:10164C00FFF77EFB00EB800000EB8000D9F8043044
:10165C009B00B0FBF3F3A6FB03235B094FF064087C
:10166C0008FB13731B013233A6FB03235B0903F046
:10167C00F0031C44FFF764FB00EB800000EB8000E0
:10168C00D9F804309B00B0FBF3F7FFF759FB00EBE4
:10169C00800000EB8000D9F804309B00B0FBF3F322
:1016AC00A6FB03235B0908FB13731B013233A6FB58
:1016BC000323C3F343131C44AC60BDE8F88300BFA1
:1016CC00003801401F85EB512DE9F04105460F46CE
:1016DC0016469846069C1EE0B4F1FF3F1BD02CB179
:1016EC00FEF77EFDC8EB0000844214D22A68D36852
:1016FC0023F4D073D3602A68536923F00103536138
:10170C00202385F8393085F83A30002385F83830B5
:10171C000320BDE8F0812B681B6837EA03030CBF7C
:10172C0001230023B342D7D00020BDE8F08100BFD5
:10173C0068B310B5044690F8393013F0FF0F04D19C
:10174C00002380F8383000F015FE242384F839305B
:10175C002268D36823F40053D3602046FFF7D6FEEB
:10176C002268136923F4904313612268536923F0B0
:10177C002A0353612268D36843F40053D3600020DA
:10178C00E063202384F8393084F83A3010BD01200E
:10179C00704700BF2DE9F04182B01E4690F83930F9
:1017AC00DBB2202B56D104460D469046002953D06F
:1017BC00002A53D090F83830012B51D0012380F8F7
:1017CC0038300023C363212380F83930FEF708FD3D
:1017DC000746A4F82480A4F8268027E0E38C9BB26B
:1017EC00013B9BB2E384A368B3F5805F12D10096F2
:1017FC003B46002280212046FFF766FF90BB226803
:10180C002B88C3F30803536023690BB902350DE031
:10181C0001350BE000963B46002280212046FFF765
:10182C0053FF08BB23682A785A600135E38C9BB2BE
:10183C00002BD3D100963B46002240212046FFF7D7
:10184C0043FF034690B9202284F83920002284F803
:10185C0038200CE002230AE0012308E0012306E013
:10186C00022304E0032302E0032300E003231846D1
:10187C0002B0BDE8F08100BF10B40A4C2060626079
:10188C00019AA260039AE260074A11805380BDF866
:10189C0008309380BDF81030D3800022034B1A70AF
:1018AC0010BC7047400D0020000D0020080D0020DA
:1018BC0008B50022044B33F81010044B53F82000E9
:1018CC00FEF7FAFE08BD00BF000D0020400D002001
:1018DC0008B50122044B33F81010044B53F82000C8
:1018EC00FEF7EAFE08BD00BF000D0020400D0020F1
:1018FC0010B4094C20606260019AA260039AE26005
:10190C00064A11805380BDF808309380BDF8103022
:10191C00D38010BC704700BF140D0020380D002080
:10192C0008B5064B33F81010054B53F82000FEF7A2
:10193C00BBFEB0FA80F0400908BD00BF380D002096
:10194C00140D0020024B1860024B1960704700BF49
:10195C00100D00200C0D002008B5024B1B68984799
:10196C0008BD00BF100D002008B5024B1B6898473E
:10197C0008BD00BF0C0D002010B550B12821114A34
:10198C001154114A127822B9FFF7E6FF01220E4BCF
:10199C001A70012412E022460A4B1B5D13B1013B65
:1019AC0008490B55074B9B5C012B05D10022064BBC
:1019BC001A702046FFF7D8FF0134E4B2102CEAD994
:1019CC0010BD00BF240D0020AC0C002008B56A4BE4
:1019DC001B787BB90020FFF76BFF0120FFF778FF26
:1019EC000220FFF775FF0320FFF772FF0122624B05
:1019FC001A70BCE0012B1FD10020FFF791FF10B132
:101A0C000120FFF7B9FF0120FFF78AFF10B1022078
:101A1C00FFF7B2FF0220FFF783FF10B10320FFF79F
:101A2C00ABFF0320FFF77CFF10B10420FFF7A4FFEE
:101A3C000222514B1A709AE0022B0FD10020FFF7B3
:101A4C0047FF0120FFF734FF0220FFF741FF03207F
:101A5C00FFF73EFF0322484B1A7088E0032B1FD17F
:101A6C000020FFF75DFF10B10520FFF785FF012077
:101A7C00FFF756FF10B10620FFF77EFF0220FFF79D
:101A8C004FFF10B10720FFF777FF0320FFF748FF48
:101A9C0010B10820FFF770FF0422374B1A7066E074
:101AAC00042B0FD10020FFF713FF0120FFF710FFCD
:101ABC000220FFF7FDFE0320FFF70AFF05222E4B45
:101ACC001A7054E0052B1FD10020FFF729FF10B12D
:101ADC000920FFF751FF0120FFF722FF10B10A2068
:101AEC00FFF74AFF0220FFF71BFF10B10B20FFF797
:101AFC0043FF0320FFF714FF10B10C20FFF73CFF4E
:101B0C0006221D4B1A7032E0062B0FD10020FFF776
:101B1C00DFFE0120FFF7DCFE0220FFF7D9FE0320D9
:101B2C00FFF7C6FE0722144B1A7020E0072B1ED1BC
:101B3C000020FFF7F5FE10B10D20FFF71DFF01206F
:101B4C00FFF7EEFE10B10E20FFF716FF0220FFF795
:101B5C00E7FE10B10F20FFF70FFF0320FFF7E0FEA9
:101B6C0010B11020FFF708FF0022034B1A70002061
:101B7C00FFF702FF08BD00BF080D002008B5FFF7F6
:101B8C0025FF08BD0023024A1380024A13807047C8
:101B9C000A0E0020500D002010B5974B1B7813F047
:101BAC00FF0F40F00B81431E0F2B00F20181DFE889
:101BBC0013F010001E002C003A004800580068007A
:101BCC00780088009700A600B500C400D300E2009E
:101BDC00F100894A894B536040F21D1488490C80EE
:101BEC0003F50F739360A222864B1A80E0E0824AC1
:101BFC00824B536040F21D1481490C8003F56073D5
:101C0C00936094227F4B1A80D2E07B4A7B4B5360CB
:101C1C0040F21D147A490C8003F59563936086227B
:101C2C00784B1A80C4E0744A744B536040F21D1414
:101C3C0073490C8003F2B45393607822714B1A8071
:101C4C00B6E06D4A6D4B03F2A46151604FF48174A0
:101C5C006B490C8003F50F739360A222694B1A80B9
:101C6C00A6E0654A654B03F2A46151604FF48174A0
:101C7C0063490C8003F5607393609422614B1A8066
:101C8C0096E05D4A5D4B03F2A46151604FF48174A0
:101C9C005B490C8003F5956393608622594B1A803F
:101CAC0086E0554A554B03F2A46151604FF48174A0
:101CBC0053490C8003F2B45393607822514B1A8031
:101CCC0076E04D4A4D4B03F6A8015160E8244C498F
:101CDC000C8003F50F739360A2224A4B1A8067E0C5
:101CEC00454A464B03F6A8015160E82444490C8050
:101CFC0003F5607393609422424B1A8058E03E4A7D
:101D0C003E4B03F6A8015160E8243D490C8003F5D5
:101D1C009563936086223B4B1A8049E0364A374BD9
:101D2C0003F6A8015160E82435490C8003F2B45342
:101D3C0093607822334B1A803AE02F4A2F4B03F6EC
:101D4C0078215160D3242E490C8003F50F739360D6
:101D5C00A2222C4B1A802BE0274A284B03F6782121
:101D6C005160D32426490C8003F560739360942250
:101D7C00244B1A801CE0204A204B03F6782151603A
:101D8C00D3241F490C8003F59563936086221D4B69
:101D9C001A800DE0184A194B03F678215160D324B0
:101DAC0017490C8003F2B45393607822154B1A80B8
:101DBC000023154A1380154A13805EE0012807D1D1
:101DCC000E4A0D4B5A6040F21D120D4B1A804FE01B
:101DDC00022807D10E4A084B5A604FF48172084B07
:101DEC001A8045E0032817D10A4A034B5A60E822AF
:101DFC00034B1A803CE000BFB00C00200800002010
:101E0C000A0E0020500D0020520D0020080E00205C
:101E1C00AC060020B0080020042806D11E4A1F4B37
:101E2C005A60D3221E4B1A8022E0052806D11D4A87
:101E3C001A4B5A60A2221A4B1A8019E0062806D1B6
:101E4C00194A164B5A609422154B1A8010E0072839
:101E5C0006D1164A114B5A608622114B1A8007E0A4
:101E6C00082805D1124A0D4B5A6078220C4B1A8067
:101E7C000023104A1380104A138002460F49104861
:101E8C0000F06EFB054B988101229A734FF40051C0
:101E9C000C48FEF717FC10BD800A0020B00C002087
:101EAC000A0E00204402002088030020B004002009
:101EBC00BC050020520D0020080E0020282E000822
:101ECC00540D0020001001402DE9F04188B0002491
:101EDC000494059406940794294B9A6942F01002D5
:101EEC009A619A6902F010020092009A9A6942F083
:101EFC0020029A619A6902F020020192019A9A6971
:101F0C0042F004029A619A6902F004020292029A67
:101F1C009A6942F008029A619B6903F008030393E3
:101F2C00039BDFF8688022464FF400514046FEF7D1
:101F3C00C3FB144E2246F0213046FEF7BDFB4FF496
:101F4C00005304930125059506940227079704A9CD
:101F5C004046FEF7BDFAF0230493059506940797C7
:101F6C0004A93046FEF7B4FA40F6034304930594F3
:101F7C00069504A90448FEF7ABFA08B0BDE8F08159
:101F8C000010024000080140000C0140001001400C
:101F9C0030B595B0002410941194129413940E94AF
:101FAC000F940794089409940A940B940C940D9430
:101FBC0000940194029403940494059406941E4D89
:101FCC001E4B2B606C60AC6040F26713EB602C61B5
:101FDC006C61AC612846FFF721F94FF480531093E4
:101FEC0010A92846FEF796FF2846FFF733F90E9402
:101FFC000F940EA92846FFF75BFA60230793089409
:10200C0009940A940B940C940D94224607A9284623
:10201C00FFF76CF9009401940294039404944FF428
:10202C0000530593069469462846FFF715FA28468F
:10203C0000F078F915B030BDC80D0020002C01401F
:10204C0008B50848084B03604FF4E13343600023A4
:10205C008360C36003610C2242618361C361FFF73B
:10206C0067FB08BD880D00200038014002682B4B2F
:10207C009A4251D12A4B1B7813F0FF0F32D1294BC6
:10208C001A88002A2AD0284B198839B32748038884
:10209C0001339BB203809A4201D200220280244A6F
:1020AC00138801339BB21380994202D20022204B39
:1020BC001A801B4A1D4B1988536833F911101C4B9D
:1020CC001888936833F910300B441BB203EBD373AD
:1020DC005B10B4331BB2114A5363704700220F4B91
:1020EC005A6370470F4B1A889AB110490B88013309
:1020FC009BB20B809A4201D200220A800B4B1A88A9
:10210C00074B5B6833F91230B4331BB2034A536389
:10211C0070470022014B5A63704700BF002C0140EE
:10212C00B00C00200A0E0020500D0020520D002093
:10213C00080E002008B5FFF721FD08BD30B591B0A1
:10214C002822002106A800F003FA0024019402942E
:10215C00039404940594012206924FF48033079360
:10216C000A9202250D950E934FF4E0130F9306A8D7
:10217C00FEF7D4FA0F230193029503944FF4806376
:10218C0004930594294601A8FEF700FD11B030BD5B
:10219C0000B585B0FEF706F8FFF7D0FFFFF794FE09
:1021AC00FFF7F6FEFFF74CFF1B4C2046FEF7A2FE96
:1021BC0000212046FFF716F918484FF400630393EB
:1021CC0002904FF480630193009002230246012198
:1021DC00FFF78EFB12488023039302904023019358
:1021EC000090202302461021FFF746FB0D490E48B4
:1021FC00FFF7A8FBB4220D4B5A630D4B9B7B002BB6
:10220C00FBD00B4A002393730A23928909490A488D
:10221C00FFF7C0FAF1E700BFC80D0020000C014029
:10222C0000080140911B0008A51B0008002C014070
:10223C00B00C0020540D0020880D002000B583B098
:10224C001A4B9A6942F001029A619A6902F00102F2
:10225C000092009ADA6942F08052DA61DB6903F08D
:10226C0080530193019B002211460120FDF7D0FF02
:10227C000120FDF7FFFF002211460420FDF7C8FFE7
:10228C000420FDF7F7FF002211460520FDF7C0FFE3
:10229C000520FDF7EFFF064A536823F0E06343F097
:1022AC000073536003B05DF804FB00BF00100240E4
:1022BC000000014002681A4B9A422FD100B583B03E
:1022CC0003F564439A6942F400629A619B6903F4D2
:1022DC0000630193019B002211461820FDF798FF23
:1022EC001820FDF7C7FF002211461920FDF790FFBB
:1022FC001920FDF7BFFF002211461A20FDF788FFB9
:10230C001A20FDF7B7FF002211461B20FDF780FFB6
:10231C001B20FDF7AFFF03B05DF804FB704700BF57
:10232C00002C014000B587B0002302930393049363
:10233C00059302680D4B9A4214D103F564439A69D4
:10234C0042F004029A619B6903F004030193019B20
:10235C004FF48073029302230393059302A904485C
:10236C00FEF7B6F807B05DF804FB00BF002C014087
:10237C000008014010B586B0002302930393049328
:10238C0005930268174B9A4229D103F558439A6971
:10239C0042F480429A619A6902F480420092009A57
:1023AC009A6942F004029A619B6903F00403019359
:1023BC00019B4FF4007302930223039303230593B1
:1023CC00094C02A92046FEF783F84FF48063029370
:1023DC0000230393049302A92046FEF779F806B074
:1023EC0010BD00BF0038014000080140704700BF1D
:1023FC00FEE700BFFEE700BFFEE700BFFEE700BF41
:10240C00704700BF704700BF704700BF08B5FFF7AB
:10241C0091FEFDF7D9FE08BD08B5FEF759F908BDC8
:10242C0008B5FDF795FF08BD704700BF08B5024819
:10243C00FEF702FE08BD00BFC80D002008B502481B
:10244C00FEF7FAFD08BD00BFC80D002008B5024814
:10245C00FEF7F2FD08BD00BFC80D002008B502480C
:10246C00FEF7EAFD08BD00BFC80D00200F4B1A682F
:10247C0042F001021A6059680D4A0A405A601A6803
:10248C0022F0847222F480321A601A6822F48022BC
:10249C001A605A6822F4FE025A604FF41F029A60C6
:1024AC004FF00062034B9A60704700BF001002406F
:1024BC000000FFF800ED00E0002103E00B4B5B583F
:1024CC00435004310A480B4B42189A42F6D30A4A3D
:1024DC0002E0002342F8043B084B9A42F9D3FFF781
:1024EC00C5FF00F00FF8FFF753FE7047702E000881
:1024FC0000000020900C0020900C0020100E0020FA
:10250C00FEE700000E4B70B51E460E4C0025E41A7B
:10251C00A410A54204D056F8253098470135F8E7A9
:10252C0000F05AFC084B094C1E46E41AA410002576
:10253C00A54204D056F8253098470135F8E770BD10
:10254C00682E0008682E0008682E00086C2E000803
:10255C0003460244934202D003F8011BFAE770478A
:10256C000EB400B54FF402719CB0ADF814106FF0BE
:10257C000041049107914FF6FF711DAB029006903C
:10258C00084853F8042BADF81610006802A9019303
:10259C0000F064F8029B00221A701CB05DF804EB8A
:1025AC0003B070478C0C00202DE9F0478E688246F2
:1025BC009E420C46914698463ED88A8912F4906FFA
:1025CC003AD02568096902236F1A656905EB450540
:1025DC0095FBF3F57B1C43449D4238BF1D465305C8
:1025EC000FD5294600F04AFB064698B13A462169B8
:1025FC0000F0D2FAA38923F4906343F08003A38103
:10260C0013E02A4600F098FB064670B92169504643
:10261C0000F0E8FA0C23CAF80030A3894FF0FF3021
:10262C0043F04003A381BDE8F08726613E44266059
:10263C0046466561ED1BA560464528BF46464946A2
:10264C003246206800F0B3FAA36800209B1BA360FD
:10265C0023681E442660BDE8F08700002DE9F04F8A
:10266C009DB003938B8980461C060D4616460DD5EE
:10267C000B695BB9402100F001FB2860286118B997
:10268C000C23C8F80030CDE040236B610023099384
:10269C0020238DF82930DFF89CB130238DF82A30B7
:1026AC0037463C4614F8013B1BB9B7EB060910D072
:1026BC0003E0252BF9D02746F3E74B463246294653
:1026CC004046FFF771FF013000F0A780099B4B4497
:1026DC0009933B78002B00F0A08000234FF0FF32D1
:1026EC0004930793059206938DF853301A930126A1
:1026FC00052221784E4800F041FA671C049B38B142
:10270C004B4A3C46801A06FA00F018430490EFE757
:10271C00D90644BF20228DF853201A0744BF2B2220
:10272C008DF8532022782A2A03D0079A00210A20F8
:10273C000BE0039A111D12680391002A10DA524221
:10274C0043F00200079204900BE027463B780134DB
:10275C00303B092B03D800FB02320121F5E701B114
:10276C0007923B782E2B1ED17B782A2B0AD1039B08
:10277C0002371A1D1B680392002BB8BF4FF0FF33B2
:10278C00059310E0002319460593781C0A2407468C
:10279C003A780130303A092A03D804FB012101238D
:1027AC00F5E703B1059103223978224800F0E6F9E8
:1027BC0040B14023CBEB000003FA00F0049B01373F
:1027CC0018430490397806221B487E1C8DF828107B
:1027DC0000F0D4F988B1194B33B9039B073323F0BC
:1027EC0007030833039314E003AB00932A46144BFE
:1027FC0004A94046AFF3008007E003AB00932A46E0
:10280C000F4B04A9404600F093F8B0F1FF3F82460D
:10281C0003D0099B5344099342E7AB895B0601D46F
:10282C00099801E04FF0FF301DB0BDE8F08F00BFFC
:10283C00342E00083A2E00083E2E0008000000003E
:10284C00B52500082DE9F04791461F460A698B68AB
:10285C0006469342B8BF1346C9F8003091F843209E
:10286C000C46DDF8208012B10133C9F80030236822
:10287C00990642BFD9F800300233C9F800302568F8
:10288C0015F0060510D104F1190A07E00123524690
:10289C0039463046C04701301AD00135E368D9F8C3
:1028AC0000209B1A9D42F1DB94F8433022680033E0
:1028BC0018BF012392060FD5E118302081F8430090
:1028CC005A1C94F845102244023382F8431003E05A
:1028DC004FF0FF30BDE8F08704F143023946304633
:1028EC00C0470130F4D02268D9F80050E36802F0F8
:1028FC000602042A08BF5D1B2269A3680CBF25EAE7
:10290C00E57500259342C4BF9B1AED184FF00009E2
:10291C001A344D4509D00123224639463046C0476A
:10292C000130D5D009F10109F3E70020BDE8F087AB
:10293C002DE9F04317460A7E85B06E2A9846064666
:10294C000C460C9B01F1430E00F0AE8011D8632AAB
:10295C0022D009D8002A00F0BB80582A40F0CA8047
:10296C0081F84520834955E0642A1ED0692A1CD081
:10297C00C0E0732A00F0B08009D86F2A2ED0702ADC
:10298C0040F0B8800A6842F020020A603EE0752AE6
:10299C0024D0782A3AD0ADE01A6801F14205111D15
:1029AC001960136884F84230A8E021681A6811F0A5
:1029BC00800F02D0111D196008E011F0400F02F1D8
:1029CC000401196002D0B2F9003000E01368002B4A
:1029DC003CDA2D225B4284F8432037E021681A68E8
:1029EC0011F0800F02D0111D196007E011F0400F9B
:1029FC0002F10401196001D0138800E01368227EF3
:102A0C005C496F2A14BF0A2208221BE078225A491B
:102A1C0084F845202268186812F0800F00F1040534
:102A2C001D6003D1550601D5038800E00368D0076B
:102A3C0044BF42F0200222601BB9226822F020021F
:102A4C0022601022002084F8430001E049490A2248
:102A5C006568002DA56008DB206820F0040020606C
:102A6C002BB9002D7DD175460CE0002B79D0754625
:102A7C00B3FBF2F002FB1033CB5C05F8013D0346CF
:102A8C000028F5D1082A0BD12368DA0708D5236969
:102A9C0062689A42DEBF302305F8013C05F1FF3530
:102AAC00C5EB0E0323612EE008681A6810F0800F46
:102ABC00496903D0101D1860136808E010F0400F2E
:102ACC0002F104001860136801D0198000E019604D
:102ADC0000232361754616E01A68111D19601568EC
:102AEC0000216268284600F049F808B1401B60607C
:102AFC00636804E004F1420584F842200123236159
:102B0C00002384F84330CDF800803B4603AA2146CD
:102B1C003046FFF797FE013002D14FF0FF3026E030
:102B2C0023692A4639463046C0470130F5D0236820
:102B3C009B0710D5002504F1190907E001234A462B
:102B4C0039463046C0470130E7D00135E368039A77
:102B5C009B1A9D42F2DBE068039B9842B8BF184673
:102B6C0005E00B7804F1420584F842308AE705B0A1
:102B7C00BDE8F083452E0008562E000810B5C9B2EA
:102B8C0002449042034605D01C7801308C42F8D1A7
:102B9C00184610BD002010BD10B5431E0A449142CA
:102BAC0004D011F8014B03F8014FF8E710BD88422F
:102BBC0010B501EB020301D8421E0BE09842FBD288
:102BCC008118D21AD34204D013F8014D01F8014DEB
:102BDC00F8E710BD994204D011F8014B02F8014FEF
:102BEC00F8E710BD38B50546002944D051F8043C2F
:102BFC000C1F002BB8BFE41800F0D4F81E4A136861
:102C0C00114613B96360146030E0A3420DD92268F9
:102C1C00A018834201BF18685B68121822606360B9
:102C2C000C6023E0A24203D813465A68002AF9D15B
:102C3C0018681918A1420BD1216801445818824216
:102C4C00196013D110685268014419605A600DE084
:102C5C0002D90C232B6009E021686018824201BF65
:102C6C00106852680918216062605C602846BDE8F3
:102C7C00384000F098B838BDD40C002070B5CD1C8D
:102C8C0025F0030508350C2D38BF0C25002D064604
:102C9C0001DBA94202D90C23336046E000F082F834
:102CAC00234B1C681A462146A1B10B685B1B0ED442
:102CBC000B2B03D90B60CC18CD501EE08C420BBFF4
:102CCC0063684B681360636018BF0C4615E00C46D4
:102CDC004968E9E7174C23681BB9304600F052F8F5
:102CEC0020602946304600F04DF8431C18D0C41C17
:102CFC0024F00304A0420DD12560304600F053F8B7
:102D0C0004F10B00231D20F00700C31A0ED05A4209
:102D1C00E25070BD211A304600F034F80130EBD18E
:102D2C000C233360304600F03EF8002070BD00BF2D
:102D3C00D40C0020D00C0020F8B5074615460E46E2
:102D4C0021B91146BDE8F840FFF798BF1AB9FFF753
:102D5C0049FF2846F8BD00F027F885420ED92946D0
:102D6C003846FFF78BFF044650B131462A46FFF731
:102D7C0013FF31463846FFF735FF01E03046F8BD0A
:102D8C002046F8BD38B5064C00230546084623609E
:102D9C0000F014F8431C02D1236803B12B6038BD3A
:102DAC000C0E00207047704751F8040C0028BEBF71
:102DBC00091851F8043CC01804387047044A0549F6
:102DCC001368002B08BF0B46184410601846704758
:102DDC00D80C0020100E0020F8B500BFF8BC08BCC1
:102DEC009E467047F8B500BFF8BC08BC9E467047BD
:102DFC0002030405060708090A0B0C0D0E0F101030
:102E0C0001020000000000000000000001020304A9
:102E1C00060708090000000001020304446F776EE6
:102E2C003A2025640A0D0000232D302B2000686CFD
:102E3C004C006566674546470030313233343536D1
:102E4C00373839414243444546003031323334350A
:0C2E5C0036373839616263646566000037
:042E6800310100082C
:042E6C000D0100084C
:102E70000100000010000000040008000C00100019
:102E8000140018001B001F00230027002B002F0038
:102E9000330036003A003E004100450049004C0036
:102EA0005000530057005A005E0061006400680043
:102EB0006B006E007100740077007A007D00800066
:102EC0008200850088008A008D008F0092009400A7
:102ED000960098009A009C009E00A000A200A3000B
:102EE000A500A700A800A900AB00AC00AD00AE0093
:102EF000AF00B000B100B100B200B300B300B30046
:102F0000B400B400B400B400B400B400B400B30022
:102F1000B300B200B200B100B000AF00AF00AE002D
:102F2000AC00AB00AA00A900A700A600A400A30063
:102F3000A1009F009D009B009900970095009300C1
:102F400090008E008B0089008600840081007E0046
:102F50007B007800750072006F006C0069006600ED
:102F600063005F005C005800550052004E004A00AC
:102F70004700430040003C003800340031002D0081
:102F80002900250021001D001900160012000E0066
:102F90000A0006000200FEFFFAFFF6FFF2FFEEFF56
:102FA000EAFFE6FFE2FFDFFFDBFFD7FFD3FFCFFF44
:102FB000CBFFC8FFC4FFC0FFBDFFB9FFB5FFB2FF25
:102FC000AEFFABFFA7FFA4FFA1FF9DFF9AFF97FFF6
:102FD00094FF90FF8DFF8AFF87FF85FF82FF7FFFB1
:102FE0007CFF7AFF77FF74FF72FF70FF6DFF6BFF4E
:102FF00069FF67FF65FF63FF61FF5FFF5DFF5CFFC8
:103000005AFF59FF57FF56FF55FF53FF52FF51FF1D
:1030100050FF50FF4FFF4EFF4EFF4DFF4DFF4CFF47
:103020004CFF4CFF4CFF4CFF4CFF4DFF4DFF4DFF45
:103030004EFF4FFF4FFF50FF51FF52FF53FF54FF12
:1030400055FF57FF58FF59FF5BFF5DFF5EFF60FFB5
:1030500062FF64FF66FF68FF6AFF6CFF6FFF71FF2E
:1030600073FF76FF78FF7BFF7EFF81FF83FF86FF84
:1030700089FF8CFF8FFF92FF95FF99FF9CFF9FFFB9
:10308000A3FFA6FFA9FFADFFB0FFB4FFB7FFBBFFD3
:10309000BFFFC2FFC6FFCAFFCEFFD1FFD5FFD9FFDA
:1030A000DDFFE1FFE5FFE9FFEDFFF0FFF4FFF8FFD3
:1030B000FCFF000007000E0014001B002200290086
:1030C0002F0036003C00430049004F0055005B00D4
:1030D000610067006C00720077007C008100860050
:1030E0008A008E00920096009A009D00A100A40024
:1030F000A600A900AB00AD00AF00B000B200B30065
:10310000B300B400B400B400B300B200B100B0002A
:10311000AE00AC00AA00A800A500A300A0009C007F
:103120009900950091008D00890084007F007B004C
:10313000750070006B0065005F005A0054004D0080
:10314000470041003A0034002D00270020001900FC
:1031500013000C000500FEFFF7FFF0FFEAFFE3FF9E
:10316000DCFFD5FFCFFFC8FFC2FFBBFFB5FFAFFF3E
:10317000A9FFA3FF9DFF98FF92FF8DFF88FF83FFAC
:103180007EFF79FF75FF71FF6CFF69FF65FF62FFCE
:103190005FFF5CFF59FF57FF54FF52FF51FF4FFF86
:1031A0004EFF4DFF4CFF4CFF4CFF4DFF4EFF4FFFBE
:1031B00051FF52FF54FF56FF59FF5BFF5EFF61FF57
:1031C00065FF68FF6CFF70FF74FF79FF7DFF82FF72
:1031D00087FF8CFF91FF97FF9CFFA2FFA8FFAEFF28
:1031E000B4FFBBFFC1FFC7FFCEFFD5FFDBFFE2FF90
:1031F000E9FFEFFFF6FFFDFF08000F0017001E00BC
:1032000025002D0034003B004200490050005700CB
:103210005D0064006A00700076007B00810086001B
:103220008B009000940098009C00A000A300A600D2
:10323000A900AB00AD00AF00B100B200B300B40014
:10324000B400B400B300B200B100AF00AD00AB00F9
:10325000A800A600A3009F009C00980093008F0088
:103260008A00850080007B0075006F0069006300A4
:103270005C0056004F00480041003A0033002C002B
:1032800024001D0015000E000600FFFFF7FFF0FFF1
:10329000E8FFE1FFD9FFD2FFCBFFC4FFBDFFB6FFC0
:1032A000AFFFA8FFA2FF9BFF95FF8FFF89FF84FF61
:1032B0007EFF79FF74FF70FF6BFF67FF63FF60FFA6
:1032C0005CFF59FF57FF54FF52FF50FF4FFF4EFF67
:1032D0004DFF4CFF4CFF4CFF4DFF4DFF4EFF50FF8D
:1032E00051FF53FF55FF58FF5BFF5EFF61FF65FF16
:1032F00069FF6DFF72FF77FF7CFF81FF86FF8CFF08
:1033000092FF98FF9EFFA5FFABFFB2FFB9FFC0FF82
:10331000C7FFCEFFD5FFDDFFE4FFECFFF3FFFBFFB0
:103320000800110019002100290031003900410076
:103330004900510058005F0066006D0073007A007C
:10334000800085008B009000950099009E00A200EF
:10335000A500A800AB00AD00AF00B100B200B30003
:10336000B400B400B400B300B200B100AF00AD00CF
:10337000AA00A700A400A0009C00980094008F0061
:10338000890084007E00780072006B0064005D009C
:1033900056004E0047003F0037002F0027001F0057
:1033A00017000E000600FEFFF5FFEDFFE5FFDCFF56
:1033B000D4FFCCFFC4FFBCFFB5FFADFFA6FF9FFF4E
:1033C00098FF91FF8BFF85FF7FFF79FF74FF6EFFF2
:1033D0006AFF65FF61FF5DFF5AFF57FF54FF52FF11
:1033E00050FF4EFF4DFF4CFF4CFF4CFF4DFF4EFF7B
:1033F00050FF52FF54FF57FF5AFF5DFF61FF65FF0B
:1034000069FF6EFF73FF78FF7EFF84FF8AFF90FFE6
:1034100097FF9EFFA5FFACFFB4FFBCFFC3FFCBFF30
:10342000D3FFDBFFE4FFECFFF4FFFDFF0900120018
:103430001C0025002E0037003F00480050005800B7
:10344000600068006F0076007D0084008A009000B4
:1034500095009A009F00A300A600AA00AD00AF004F
:10346000B100B200B300B400B400B300B100AF00CB
:10347000AD00AA00A700A400A0009B009600910048
:103480008B0085007F00780071006A0062005A009E
:1034900052004A0041003900300027001E0015008C
:1034A0000B000200F9FFF0FFE7FFDDFFD4FFCCFFC8
:1034B000C3FFBAFFB2FFAAFFA2FF9AFF92FF8BFFE2
:1034C00084FF7EFF78FF72FF6CFF67FF63FF5EFF84
:1034D0005AFF57FF54FF52FF50FF4EFF4DFF4CFF66
:1034E0004CFF4DFF4EFF50FF52FF55FF58FF5BFF53
:1034F0005FFF64FF69FF6EFF73FF79FF80FF86FF48
:103500008DFF95FF9CFFA4FFACFFB4FFBDFFC5FF7F
:10351000CEFFD7FFE0FFE9FFF2FFFCFF0400090048
:103520000D00110016001A001E00230027002B00BA
:103530002F00340038003C004000440048004C009C
:103540005000540058005B005F00630066006A0092
:103550006D007100740077007B007E0081008400A4
:1035600087008A008C008F009200940097009900D9
:103570009B009D009F00A100A300A500A700A8003C
:10358000AA00AB00AD00AE00AF00B000B100B100CA
:10359000B200B300B300B400B400B400B400B4008F
:1035A000B400B300B300B200B100B100B000AF008E
:1035B000AE00AC00AB00AA00A800A700A500A300C5
:1035C000A1009F009D009B0099009600940091002F
:1035D0008F008C0089008600840081007D007A00C5
:1035E0007700740070006D006900660062005F0083
:1035F0005B00570053004F004B00470043003F0063
:103600003B00370033002F002B00260022001E0055
:103610001900150011000C0008000400FFFFFBFF5B
:10362000F7FFF2FFEEFFEAFFE5FFE1FFDDFFD9FF65
:10363000D4FFD0FFCCFFC8FFC4FFC0FFBCFFB8FF62
:10364000B4FFB0FFACFFA8FFA4FFA0FF9DFF99FF50
:1036500096FF92FF8FFF8BFF88FF85FF82FF7FFF22
:103660007CFF79FF76FF73FF71FF6EFF6BFF69FFD1
:1036700067FF64FF62FF60FF5EFF5CFF5BFF59FF57
:1036800057FF56FF55FF53FF52FF51FF50FF4FFFAB
:103690004EFF4EFF4DFF4DFF4CFF4CFF4CFF4CFFCC
:1036A0004CFF4CFF4DFF4DFF4DFF4EFF4FFF50FFB6
:1036B00050FF51FF53FF54FF55FF57FF58FF5AFF6C
:1036C0005BFF5DFF5FFF61FF63FF65FF68FF6AFFF0
:1036D0006CFF6FFF72FF74FF77FF7AFF7DFF80FF43
:1036E00083FF86FF89FF8DFF90FF94FF97FF9BFF6D
:1036F0009EFFA2FFA6FFA9FFADFFB1FFB5FFB9FF77
:10370000BDFFC1FFC5FFC9FFCEFFD2FFD6FFDAFF65
:10371000DEFFE3FFE7FFFEFFF0FFF4FFF8FFFDFF32
:1037200005000A000E00130018001D0022002600EC
:103730002B003000340039003D00420046004B00B1
:103740004F00530058005C006000640068006C008B
:103750007000730077007B007E0081008500880088
:103760008B008E0091009400970099009C009E00B1
:10377000A000A200A400A600A800AA00AB00AD0013
:10378000AE00AF00B000B100B200B300B300B400AF
:10379000B400B400B400B400B300B300B200B10090
:1037A000B100B000AE00AD00AC00AA00A900A700B7
:1037B000A500A300A1009F009C009A00970095001F
:1037C00092008F008C008900860083007F007C00BF
:1037D0007800750071006D006900650061005D0092
:1037E0005900550051004C00480044003F003B0088
:1037F000360031002D00280023001F001A0015009C
:1038000010000B0007000200FDFFF8FFF3FFEFFFC1
:10381000EAFFE5FFE0FFDBFFD7FFD2FFCDFFC9FFE7
:10382000C4FFC0FFBBFFB7FFB3FFAEFFAAFFA6FFF9
:10383000A2FF9EFF9AFF96FF92FF8EFF8AFF87FFEF
:1038400083FF80FF7CFF79FF76FF73FF70FF6DFFC2
:103850006AFF68FF65FF63FF61FF5EFF5CFF5AFF61
:1038600059FF57FF55FF54FF52FF51FF50FF4FFFC5
:103870004EFF4EFF4DFF4DFF4CFF4CFF4CFF4CFFEA
:103880004DFF4DFF4EFF4EFF4FFF50FF51FF52FFC8
:1038900054FF55FF57FF58FF5AFF5CFF5EFF60FF64
:1038A00063FF65FF68FF6AFF6DFF70FF73FF76FFC0
:1038B00079FF7CFF7FFF83FF86FF8AFF8EFF91FFEA
:1038C00095FF99FF9DFFA1FFA5FFA9FFAEFFB2FFE6
:1038D000B6FFBBFFBFFFC4FFC8FFCDFFD2FFD6FFBF
:1038E000DBFFE0FFE4FFE9FFEEFFF3FFF8FFFCFF83
:1038F00005000B00100015001B00200025002A0009
:103900002F0034003A003F00430048004D005200B1
:1039100057005B006000640069006D007100750075
:1039200079007D008100850088008C008F00920066
:10393000950098009B009D00A000A200A500A70094
:10394000A900AA00AC00AD00AF00B000B100B20009
:10395000B300B300B400B400B400B400B400B300CA
:10396000B300B200B100B000AF00AE00AC00AB00DD
:10397000A900A700A500A300A1009E009B0099003C
:103980009600930090008C008900860082007E00E3
:103990007A00760072006E006A00660061005D00C9
:1039A000580053004F004A00450040003B003600DD
:1039B00031002C00260021001C00170011000C0013
:1039C00007000100FCFFF7FFF1FFECFFE7FFE2FF5C
:1039D000DCFFD7FFD2FFCDFFC8FFC3FFBEFFB9FF9B
:1039E000B4FFAFFFABFFA6FFA1FF9DFF98FF94FFC1
:1039F00090FF8CFF88FF84FF80FF7CFF79FF75FFBD
:103A000072FF6FFF6CFF69FF66FF63FF61FF5EFF80
:103A10005CFF5AFF58FF56FF54FF53FF52FF50FF01
:103A20004FFF4EFF4EFF4DFF4CFF4CFF4CFF4CFF36
:103A30004DFF4DFF4EFF4EFF4FFF51FF52FF53FF13
:103A400055FF56FF58FF5AFF5CFF5FFF61FF64FFA1
:103A500067FF69FF6CFF6FFF73FF76FF7AFF7DFFE3
:103A600081FF85FF89FF8DFF91FF95FF99FF9EFFE5
:103A7000A2FFA7FFABFFB0FFB5FFBAFFBFFFC4FFB8
:103A8000C9FFCEFFD3FFD8FFDDFFE3FFE8FFEDFF67
:103A9000F2FFF8FFFDFF000000A24A040000000052
:103AA0000000000000000000000000000000000016
:103AB0000000000000000000000000000000000006
:103AC00000000000000000000000000000000000F6
:103AD00000000000000000000000000000000000E6
:103AE00000000000000000000000000000000000D6
:103AF0000000000000000000000000002C0C00206E
:04000005080024C506
:00000001FF
